{
  "contractName": "EtherBid",
  "abi": [
    {
      "constant": true,
      "inputs": [],
      "name": "isActive",
      "outputs": [
        {
          "name": "",
          "type": "bool"
        }
      ],
      "payable": false,
      "stateMutability": "view",
      "type": "function"
    },
    {
      "constant": true,
      "inputs": [],
      "name": "endTime",
      "outputs": [
        {
          "name": "",
          "type": "uint256"
        }
      ],
      "payable": false,
      "stateMutability": "view",
      "type": "function"
    },
    {
      "constant": true,
      "inputs": [],
      "name": "isWithdrawable",
      "outputs": [
        {
          "name": "",
          "type": "bool"
        }
      ],
      "payable": false,
      "stateMutability": "view",
      "type": "function"
    },
    {
      "constant": true,
      "inputs": [
        {
          "name": "",
          "type": "address"
        }
      ],
      "name": "addressToHighestBidName",
      "outputs": [
        {
          "name": "",
          "type": "string"
        }
      ],
      "payable": false,
      "stateMutability": "view",
      "type": "function"
    },
    {
      "constant": true,
      "inputs": [],
      "name": "currentHighestBidder",
      "outputs": [
        {
          "name": "",
          "type": "address"
        }
      ],
      "payable": false,
      "stateMutability": "view",
      "type": "function"
    },
    {
      "constant": true,
      "inputs": [],
      "name": "startTime",
      "outputs": [
        {
          "name": "",
          "type": "uint256"
        }
      ],
      "payable": false,
      "stateMutability": "view",
      "type": "function"
    },
    {
      "constant": true,
      "inputs": [],
      "name": "contractOwner",
      "outputs": [
        {
          "name": "",
          "type": "address"
        }
      ],
      "payable": false,
      "stateMutability": "view",
      "type": "function"
    },
    {
      "constant": true,
      "inputs": [],
      "name": "highestBid",
      "outputs": [
        {
          "name": "",
          "type": "uint256"
        }
      ],
      "payable": false,
      "stateMutability": "view",
      "type": "function"
    },
    {
      "constant": true,
      "inputs": [],
      "name": "prize",
      "outputs": [
        {
          "name": "",
          "type": "uint256"
        }
      ],
      "payable": false,
      "stateMutability": "view",
      "type": "function"
    },
    {
      "inputs": [],
      "payable": false,
      "stateMutability": "nonpayable",
      "type": "constructor"
    },
    {
      "constant": true,
      "inputs": [],
      "name": "getAuctionInfo",
      "outputs": [
        {
          "name": "_highestBid",
          "type": "uint256"
        },
        {
          "name": "_highestBidder",
          "type": "string"
        },
        {
          "name": "_endTime",
          "type": "uint256"
        },
        {
          "name": "_prize",
          "type": "uint256"
        }
      ],
      "payable": false,
      "stateMutability": "view",
      "type": "function"
    },
    {
      "constant": true,
      "inputs": [],
      "name": "isAuctionTimeUp",
      "outputs": [
        {
          "name": "",
          "type": "bool"
        }
      ],
      "payable": false,
      "stateMutability": "view",
      "type": "function"
    },
    {
      "constant": false,
      "inputs": [
        {
          "name": "bidderName",
          "type": "string"
        }
      ],
      "name": "placeBid",
      "outputs": [],
      "payable": true,
      "stateMutability": "payable",
      "type": "function"
    },
    {
      "constant": false,
      "inputs": [],
      "name": "checkIfAuctionHasEnded",
      "outputs": [
        {
          "name": "",
          "type": "bool"
        }
      ],
      "payable": false,
      "stateMutability": "nonpayable",
      "type": "function"
    },
    {
      "constant": false,
      "inputs": [
        {
          "name": "durationInDays",
          "type": "uint256"
        }
      ],
      "name": "startAuction",
      "outputs": [],
      "payable": true,
      "stateMutability": "payable",
      "type": "function"
    },
    {
      "constant": false,
      "inputs": [
        {
          "name": "recipient",
          "type": "address"
        }
      ],
      "name": "withdraw",
      "outputs": [],
      "payable": false,
      "stateMutability": "nonpayable",
      "type": "function"
    }
  ],
  "bytecode": "0x608060405234801561001057600080fd5b5060008054600160a060020a03191633179055610863806100326000396000f3006080604052600436106100da5763ffffffff7c0100000000000000000000000000000000000000000000000000000000600035041663065de74c81146100df57806322f3e2d4146100ec5780633197cbb6146101155780634d840bcc1461013c57806351cff8d9146101515780635b66d891146101725780636e395bae1461020857806378e97925146102395780638893dbd21461024e578063b7304b6614610263578063ce606ee014610278578063d57bde791461028d578063d94a3505146102a2578063e3ac5d2614610344578063e967e60c14610359575b600080fd5b6100ea60043561036c565b005b3480156100f857600080fd5b50610101610410565b604080519115158252519081900360200190f35b34801561012157600080fd5b5061012a610419565b60408051918252519081900360200190f35b34801561014857600080fd5b5061010161041f565b34801561015d57600080fd5b506100ea600160a060020a036004351661042d565b34801561017e57600080fd5b50610193600160a060020a0360043516610499565b6040805160208082528351818301528351919283929083019185019080838360005b838110156101cd5781810151838201526020016101b5565b50505050905090810190601f1680156101fa5780820380516001836020036101000a031916815260200191505b509250505060405180910390f35b34801561021457600080fd5b5061021d610534565b60408051600160a060020a039092168252519081900360200190f35b34801561024557600080fd5b5061012a610543565b34801561025a57600080fd5b50610101610549565b34801561026f57600080fd5b50610101610552565b34801561028457600080fd5b5061021d610577565b34801561029957600080fd5b5061012a610586565b3480156102ae57600080fd5b506102b761058c565b6040518085815260200180602001848152602001838152602001828103825285818151815260200191508051906020019080838360005b838110156103065781810151838201526020016102ee565b50505050905090810190601f1680156103335780820380516001836020036101000a031916815260200191505b509550505050505060405180910390f35b34801561035057600080fd5b5061012a610651565b6100ea6004803560248101910135610657565b600054600160a060020a0316331461038357600080fd5b346001908155426005819055620151808302016006556007805460ff191690911761ff00191690556003805473ffffffffffffffffffffffffffffffffffffffff191690556040805160208082019283905260008083528052600490525161040c917f17ef568e3e12ab5b9c7254a8d58478811de00f9e6eb34345acd53bf8fd09d3ec91610731565b5050565b60075460ff1681565b60065481565b600754610100900460ff1681565b60008054600160a060020a0316331461044557600080fd5b600754610100900460ff16151561045b57600080fd5b506040513090600160a060020a03831690823180156108fc02916000818181858888f19350505050158015610494573d6000803e3d6000fd5b505050565b60046020908152600091825260409182902080548351601f60026000196101006001861615020190931692909204918201849004840281018401909452808452909183018282801561052c5780601f106105015761010080835404028352916020019161052c565b820191906000526020600020905b81548152906001019060200180831161050f57829003601f168201915b505050505081565b600354600160a060020a031681565b60055481565b60065442115b90565b600061055c610549565b15610571576105696106e3565b50600161054f565b50600090565b600054600160a060020a031681565b60025481565b600354600160a060020a031660009081526004602090815260408083208054825160026101006001841615026000190190921691909104601f8101859004850282018501909352828152606093859384938693929091908301828280156106345780601f1061060957610100808354040283529160200191610634565b820191906000526020600020905b81548152906001019060200180831161061757829003601f168201915b5050600254600654600154919b959a509850965092945050505050565b60015481565b600754600090819060ff16151561066d57600080fd5b610675610549565b15610682576100da6106e3565b3391503490506002548111156106dd576003805473ffffffffffffffffffffffffffffffffffffffff1916600160a060020a038416908117909155600282905560009081526004602052604090206106db9085856107af565b505b50505050565b6007805461ffff1916610100179055600354600154604051600160a060020a039092169181156108fc0291906000818181858888f1935050505015801561072e573d6000803e3d6000fd5b50565b828054600181600116156101000203166002900490600052602060002090601f016020900481019282601f1061077257805160ff191683800117855561079f565b8280016001018555821561079f579182015b8281111561079f578251825591602001919060010190610784565b506107ab92915061081d565b5090565b828054600181600116156101000203166002900490600052602060002090601f016020900481019282601f106107f05782800160ff1982351617855561079f565b8280016001018555821561079f579182015b8281111561079f578235825591602001919060010190610802565b61054f91905b808211156107ab57600081556001016108235600a165627a7a72305820504f1ccb1e12cdf5701ef34d81d6e3dff3810d5fd6868a24fe1ed092950080900029",
  "source": "pragma solidity 0.4.24;\n\ncontract EtherBid {\n  address public contractOwner; // owner of the contract\n  uint256 public prize; // amount of wei on offer to winner\n  uint256 public highestBid; // highest bid in wei\n  address public currentHighestBidder; // address of current highest bidder\n  mapping(address => string) public addressToHighestBidName; // track current highest bids sent by addresses\n  uint256 public startTime; // start time recorded when `startAuction` function is called\n  uint256 public endTime; // end time calculated by duration in days passed to `startAuction` call\n  bool public isActive; // bool toggle here to make sure we don't get stuck in an endless auction ending scenario - it must run only once!\n  bool public isWithdrawable; // bool to toggle whether or not owner can withdraw from contract\n\n  constructor() {\n    contractOwner = msg.sender;\n  }\n\n  modifier auctionIsActive() {\n    require(isActive);\n    _;\n  }\n\n  modifier onlyOwner() {\n    require(msg.sender == contractOwner);\n    _;\n  }\n\n  modifier withdrawable() {\n    require(isWithdrawable);\n    _;\n  }\n\n  function getAuctionInfo() external constant returns\n  (uint256 _highestBid, string _highestBidder, uint256 _endTime, uint256 _prize) {\n    string memory highestBidder = addressToHighestBidName[currentHighestBidder];\n\n    return (\n      highestBid,\n      highestBidder,\n      endTime,\n      prize\n    );\n  }\n\n  function isAuctionTimeUp() view returns (bool) {\n    return now > endTime;\n  }\n\n  function placeBid(string bidderName) external payable auctionIsActive() {\n    if (isAuctionTimeUp()) {\n      endAuction();\n      revert();\n    }\n\n    address bidderAddress = msg.sender;\n    uint256 bid = msg.value;\n\n    if (bid > highestBid) {\n      currentHighestBidder = bidderAddress;\n      highestBid = bid;\n      addressToHighestBidName[bidderAddress] = bidderName;\n    }\n  }\n\n  function checkIfAuctionHasEnded() external returns (bool) {\n    if (isAuctionTimeUp()) {\n      endAuction();\n      return true;\n    }\n\n    return false;\n  }\n\n  function startAuction(uint256 durationInDays) external payable onlyOwner() {\n    prize = msg.value;\n    startTime = now;\n    endTime = startTime + (durationInDays * 24 * 60 * 60);\n    isActive = true;\n    isWithdrawable = false;\n    currentHighestBidder = 0x0;\n    addressToHighestBidName[currentHighestBidder] = '';\n  }\n\n  function endAuction() private {\n    isActive = false;\n    isWithdrawable = true;\n    currentHighestBidder.transfer(prize);\n  }\n\n  function withdraw(address recipient) external onlyOwner() withdrawable() {\n    address etherBidContract = address(this);\n    recipient.transfer(etherBidContract.balance);\n  }\n}\n",
  "sourcePath": "/Users/Aaron/Projects/etherbid/contracts/EtherBid.sol",
  "compiler": {
    "name": "solc",
    "version": "0.4.24+commit.e67f0147.Emscripten.clang"
  },
  "schemaVersion": "2.0.1",
  "updatedAt": "2018-08-19T19:45:36.690Z"
}