{
  "contractName": "EtherBid",
  "abi": [
    {
      "constant": true,
      "inputs": [],
      "name": "isActive",
      "outputs": [
        {
          "name": "",
          "type": "bool"
        }
      ],
      "payable": false,
      "stateMutability": "view",
      "type": "function"
    },
    {
      "constant": true,
      "inputs": [],
      "name": "endTime",
      "outputs": [
        {
          "name": "",
          "type": "uint256"
        }
      ],
      "payable": false,
      "stateMutability": "view",
      "type": "function"
    },
    {
      "constant": true,
      "inputs": [],
      "name": "isWithdrawable",
      "outputs": [
        {
          "name": "",
          "type": "bool"
        }
      ],
      "payable": false,
      "stateMutability": "view",
      "type": "function"
    },
    {
      "constant": true,
      "inputs": [],
      "name": "currentHighestBidder",
      "outputs": [
        {
          "name": "",
          "type": "address"
        }
      ],
      "payable": false,
      "stateMutability": "view",
      "type": "function"
    },
    {
      "constant": true,
      "inputs": [],
      "name": "startTime",
      "outputs": [
        {
          "name": "",
          "type": "uint256"
        }
      ],
      "payable": false,
      "stateMutability": "view",
      "type": "function"
    },
    {
      "constant": true,
      "inputs": [
        {
          "name": "",
          "type": "address"
        }
      ],
      "name": "addressToHighestBid",
      "outputs": [
        {
          "name": "",
          "type": "uint256"
        }
      ],
      "payable": false,
      "stateMutability": "view",
      "type": "function"
    },
    {
      "constant": true,
      "inputs": [],
      "name": "contractOwner",
      "outputs": [
        {
          "name": "",
          "type": "address"
        }
      ],
      "payable": false,
      "stateMutability": "view",
      "type": "function"
    },
    {
      "constant": true,
      "inputs": [],
      "name": "highestBid",
      "outputs": [
        {
          "name": "",
          "type": "uint256"
        }
      ],
      "payable": false,
      "stateMutability": "view",
      "type": "function"
    },
    {
      "constant": true,
      "inputs": [],
      "name": "prize",
      "outputs": [
        {
          "name": "",
          "type": "uint256"
        }
      ],
      "payable": false,
      "stateMutability": "view",
      "type": "function"
    },
    {
      "inputs": [],
      "payable": false,
      "stateMutability": "nonpayable",
      "type": "constructor"
    },
    {
      "constant": true,
      "inputs": [
        {
          "name": "queryAddress",
          "type": "address"
        }
      ],
      "name": "getHighestBidForAddress",
      "outputs": [
        {
          "name": "",
          "type": "uint256"
        }
      ],
      "payable": false,
      "stateMutability": "view",
      "type": "function"
    },
    {
      "constant": true,
      "inputs": [],
      "name": "auctionTimeUp",
      "outputs": [
        {
          "name": "",
          "type": "bool"
        }
      ],
      "payable": false,
      "stateMutability": "view",
      "type": "function"
    },
    {
      "constant": false,
      "inputs": [],
      "name": "placeBid",
      "outputs": [],
      "payable": true,
      "stateMutability": "payable",
      "type": "function"
    },
    {
      "constant": false,
      "inputs": [],
      "name": "checkIfAuctionHasEnded",
      "outputs": [
        {
          "name": "",
          "type": "bool"
        }
      ],
      "payable": false,
      "stateMutability": "nonpayable",
      "type": "function"
    },
    {
      "constant": false,
      "inputs": [
        {
          "name": "durationInDays",
          "type": "uint256"
        }
      ],
      "name": "startAuction",
      "outputs": [],
      "payable": true,
      "stateMutability": "payable",
      "type": "function"
    },
    {
      "constant": false,
      "inputs": [
        {
          "name": "recipient",
          "type": "address"
        }
      ],
      "name": "withdraw",
      "outputs": [],
      "payable": false,
      "stateMutability": "nonpayable",
      "type": "function"
    }
  ],
  "bytecode": "0x608060405234801561001057600080fd5b50336000806101000a81548173ffffffffffffffffffffffffffffffffffffffff021916908373ffffffffffffffffffffffffffffffffffffffff160217905550610869806100606000396000f3006080604052600436106100db576000357c0100000000000000000000000000000000000000000000000000000000900463ffffffff168063065de74c146100e057806322f3e2d4146101005780633197cbb61461012f5780634d840bcc1461015a57806351cff8d9146101895780636e395bae146101cc57806378e97925146102235780639018dadd1461024e578063b7304b661461027d578063b95be5ed146102ac578063ce606ee014610303578063d57bde791461035a578063e3ac5d2614610385578063ecfc7ecc146103b0578063f2e86954146103ba575b600080fd5b6100fe60048036038101908080359060200190929190505050610411565b005b34801561010c57600080fd5b506101156104c6565b604051808215151515815260200191505060405180910390f35b34801561013b57600080fd5b506101446104d9565b6040518082815260200191505060405180910390f35b34801561016657600080fd5b5061016f6104df565b604051808215151515815260200191505060405180910390f35b34801561019557600080fd5b506101ca600480360381019080803573ffffffffffffffffffffffffffffffffffffffff1690602001909291905050506104f2565b005b3480156101d857600080fd5b506101e16105cf565b604051808273ffffffffffffffffffffffffffffffffffffffff1673ffffffffffffffffffffffffffffffffffffffff16815260200191505060405180910390f35b34801561022f57600080fd5b506102386105f5565b6040518082815260200191505060405180910390f35b34801561025a57600080fd5b506102636105fb565b604051808215151515815260200191505060405180910390f35b34801561028957600080fd5b50610292610607565b604051808215151515815260200191505060405180910390f35b3480156102b857600080fd5b506102ed600480360381019080803573ffffffffffffffffffffffffffffffffffffffff16906020019092919050505061062f565b6040518082815260200191505060405180910390f35b34801561030f57600080fd5b50610318610647565b604051808273ffffffffffffffffffffffffffffffffffffffff1673ffffffffffffffffffffffffffffffffffffffff16815260200191505060405180910390f35b34801561036657600080fd5b5061036f61066c565b6040518082815260200191505060405180910390f35b34801561039157600080fd5b5061039a610672565b6040518082815260200191505060405180910390f35b6103b8610678565b005b3480156103c657600080fd5b506103fb600480360381019080803573ffffffffffffffffffffffffffffffffffffffff169060200190929190505050610751565b6040518082815260200191505060405180910390f35b6000809054906101000a900473ffffffffffffffffffffffffffffffffffffffff1673ffffffffffffffffffffffffffffffffffffffff163373ffffffffffffffffffffffffffffffffffffffff1614151561046c57600080fd5b3460018190555042600581905550603c80601883020202600554016006819055506001600760006101000a81548160ff0219169083151502179055506000600760016101000a81548160ff02191690831515021790555050565b600760009054906101000a900460ff1681565b60065481565b600760019054906101000a900460ff1681565b60008060009054906101000a900473ffffffffffffffffffffffffffffffffffffffff1673ffffffffffffffffffffffffffffffffffffffff163373ffffffffffffffffffffffffffffffffffffffff1614151561054f57600080fd5b600760019054906101000a900460ff16151561056a57600080fd5b3090508173ffffffffffffffffffffffffffffffffffffffff166108fc8273ffffffffffffffffffffffffffffffffffffffff16319081150290604051600060405180830381858888f193505050501580156105ca573d6000803e3d6000fd5b505050565b600360009054906101000a900473ffffffffffffffffffffffffffffffffffffffff1681565b60055481565b60006006544211905090565b60006106116105fb565b156106275761061e61079a565b6001905061062c565b600090505b90565b60046020528060005260406000206000915090505481565b6000809054906101000a900473ffffffffffffffffffffffffffffffffffffffff1681565b60025481565b60015481565b600080600760009054906101000a900460ff16151561069657600080fd5b61069e6105fb565b156106b0576106ab61079a565b600080fd5b33915034905080600460008473ffffffffffffffffffffffffffffffffffffffff1673ffffffffffffffffffffffffffffffffffffffff1681526020019081526020016000208190555060025481111561074d5781600360006101000a81548173ffffffffffffffffffffffffffffffffffffffff021916908373ffffffffffffffffffffffffffffffffffffffff160217905550806002819055505b5050565b6000600460008373ffffffffffffffffffffffffffffffffffffffff1673ffffffffffffffffffffffffffffffffffffffff168152602001908152602001600020549050919050565b6000600760006101000a81548160ff0219169083151502179055506001600760016101000a81548160ff021916908315150217905550600360009054906101000a900473ffffffffffffffffffffffffffffffffffffffff1673ffffffffffffffffffffffffffffffffffffffff166108fc6001549081150290604051600060405180830381858888f1935050505015801561083a573d6000803e3d6000fd5b505600a165627a7a72305820d935779f8cc4a3ba7bc8d80941af97af0300fdd4f1c02d316eda39aa078b73eb0029",
  "source": "pragma solidity 0.4.24;\n\ncontract EtherBid {\n  address public contractOwner; // owner of the contract\n  uint256 public prize; // amount of gwei on offer to winner\n  uint256 public highestBid; // highest bid in wei\n  address public currentHighestBidder; // address of current highest bidder\n  mapping(address => uint256) public addressToHighestBid; // track current highest bids sent by addresses\n  uint256 public startTime; // start time recorded when `startAuction` function is called\n  uint256 public endTime; // end time calculated by duration in days passed to `startAuction` call\n  bool public isActive; // bool toggle here to make sure we don't get stuck in an endless auction ending scenario - it must run only once!\n  bool public isWithdrawable; // bool to toggle whether or not owner can withdraw from contract\n\n  constructor() {\n    contractOwner = msg.sender;\n  }\n\n  modifier auctionIsActive() {\n    require(isActive);\n    _;\n  }\n\n  modifier onlyOwner() {\n    require(msg.sender == contractOwner);\n    _;\n  }\n\n  modifier withdrawable() {\n    require(isWithdrawable);\n    _;\n  }\n\n  function getHighestBidForAddress(address queryAddress) external constant returns (uint256) {\n    return addressToHighestBid[queryAddress];\n  }\n\n  function auctionTimeUp() view returns (bool) {\n    return now > endTime;\n  }\n\n  function placeBid() external payable auctionIsActive() {\n    if (auctionTimeUp()) {\n      endAuction();\n      revert();\n    }\n\n    address bidder = msg.sender;\n    uint256 bid = msg.value;\n\n    addressToHighestBid[bidder] = bid;\n\n    if (bid > highestBid) {\n      currentHighestBidder = bidder;\n      highestBid = bid;\n    }\n  }\n\n  function checkIfAuctionHasEnded() external returns (bool) {\n    if (auctionTimeUp()) {\n      endAuction();\n      return true;\n    }\n\n    return false;\n  }\n\n  function startAuction(uint256 durationInDays) external payable onlyOwner() {\n    prize = msg.value;\n    startTime = now;\n    endTime = startTime + (durationInDays * 24 * 60 * 60);\n    isActive = true;\n    isWithdrawable = false;\n  }\n\n  function endAuction() private {\n    isActive = false;\n    isWithdrawable = true;\n    currentHighestBidder.transfer(prize);\n  }\n\n  function withdraw(address recipient) external onlyOwner() withdrawable() {\n    address etherBidContract = address(this);\n    recipient.transfer(etherBidContract.balance);\n  }\n}\n",
  "sourcePath": "/Users/Aaron/Projects/etherbid/contracts/EtherBid.sol",
  "compiler": {
    "name": "solc",
    "version": "0.4.24+commit.e67f0147.Emscripten.clang"
  },
  "schemaVersion": "2.0.1",
  "updatedAt": "2018-08-06T17:42:57.612Z"
}