{
  "contractName": "EtherBid",
  "abi": [
    {
      "constant": true,
      "inputs": [],
      "name": "isActive",
      "outputs": [
        {
          "name": "",
          "type": "bool"
        }
      ],
      "payable": false,
      "stateMutability": "view",
      "type": "function"
    },
    {
      "constant": true,
      "inputs": [],
      "name": "endTime",
      "outputs": [
        {
          "name": "",
          "type": "uint256"
        }
      ],
      "payable": false,
      "stateMutability": "view",
      "type": "function"
    },
    {
      "constant": true,
      "inputs": [],
      "name": "currentHighestBidder",
      "outputs": [
        {
          "name": "",
          "type": "address"
        }
      ],
      "payable": false,
      "stateMutability": "view",
      "type": "function"
    },
    {
      "constant": true,
      "inputs": [],
      "name": "startTime",
      "outputs": [
        {
          "name": "",
          "type": "uint256"
        }
      ],
      "payable": false,
      "stateMutability": "view",
      "type": "function"
    },
    {
      "constant": true,
      "inputs": [
        {
          "name": "",
          "type": "address"
        }
      ],
      "name": "addressToHighestBid",
      "outputs": [
        {
          "name": "",
          "type": "uint256"
        }
      ],
      "payable": false,
      "stateMutability": "view",
      "type": "function"
    },
    {
      "constant": true,
      "inputs": [],
      "name": "contractOwner",
      "outputs": [
        {
          "name": "",
          "type": "address"
        }
      ],
      "payable": false,
      "stateMutability": "view",
      "type": "function"
    },
    {
      "constant": true,
      "inputs": [],
      "name": "highestBid",
      "outputs": [
        {
          "name": "",
          "type": "uint256"
        }
      ],
      "payable": false,
      "stateMutability": "view",
      "type": "function"
    },
    {
      "constant": true,
      "inputs": [],
      "name": "prize",
      "outputs": [
        {
          "name": "",
          "type": "uint256"
        }
      ],
      "payable": false,
      "stateMutability": "view",
      "type": "function"
    },
    {
      "inputs": [],
      "payable": false,
      "stateMutability": "nonpayable",
      "type": "constructor"
    },
    {
      "constant": true,
      "inputs": [
        {
          "name": "queryAddress",
          "type": "address"
        }
      ],
      "name": "getHighestBidForAddress",
      "outputs": [
        {
          "name": "",
          "type": "uint256"
        }
      ],
      "payable": false,
      "stateMutability": "view",
      "type": "function"
    },
    {
      "constant": false,
      "inputs": [],
      "name": "placeBid",
      "outputs": [],
      "payable": true,
      "stateMutability": "payable",
      "type": "function"
    },
    {
      "constant": false,
      "inputs": [],
      "name": "checkIfAuctionHasEnded",
      "outputs": [
        {
          "name": "",
          "type": "bool"
        }
      ],
      "payable": false,
      "stateMutability": "nonpayable",
      "type": "function"
    },
    {
      "constant": false,
      "inputs": [
        {
          "name": "durationInDays",
          "type": "uint256"
        }
      ],
      "name": "startAuction",
      "outputs": [],
      "payable": true,
      "stateMutability": "payable",
      "type": "function"
    }
  ],
  "bytecode": "0x608060405234801561001057600080fd5b50336000806101000a81548173ffffffffffffffffffffffffffffffffffffffff021916908373ffffffffffffffffffffffffffffffffffffffff16021790555061066f806100606000396000f3006080604052600436106100ba576000357c0100000000000000000000000000000000000000000000000000000000900463ffffffff168063065de74c146100bf57806322f3e2d4146100df5780633197cbb61461010e5780636e395bae1461013957806378e9792514610190578063b7304b66146101bb578063b95be5ed146101ea578063ce606ee014610241578063d57bde7914610298578063e3ac5d26146102c3578063ecfc7ecc146102ee578063f2e86954146102f8575b600080fd5b6100dd6004803603810190808035906020019092919050505061034f565b005b3480156100eb57600080fd5b506100f46103e9565b604051808215151515815260200191505060405180910390f35b34801561011a57600080fd5b506101236103fc565b6040518082815260200191505060405180910390f35b34801561014557600080fd5b5061014e610402565b604051808273ffffffffffffffffffffffffffffffffffffffff1673ffffffffffffffffffffffffffffffffffffffff16815260200191505060405180910390f35b34801561019c57600080fd5b506101a5610428565b6040518082815260200191505060405180910390f35b3480156101c757600080fd5b506101d061042e565b604051808215151515815260200191505060405180910390f35b3480156101f657600080fd5b5061022b600480360381019080803573ffffffffffffffffffffffffffffffffffffffff169060200190929190505050610453565b6040518082815260200191505060405180910390f35b34801561024d57600080fd5b5061025661046b565b604051808273ffffffffffffffffffffffffffffffffffffffff1673ffffffffffffffffffffffffffffffffffffffff16815260200191505060405180910390f35b3480156102a457600080fd5b506102ad610490565b6040518082815260200191505060405180910390f35b3480156102cf57600080fd5b506102d8610496565b6040518082815260200191505060405180910390f35b6102f661049c565b005b34801561030457600080fd5b50610339600480360381019080803573ffffffffffffffffffffffffffffffffffffffff169060200190929190505050610572565b6040518082815260200191505060405180910390f35b6000809054906101000a900473ffffffffffffffffffffffffffffffffffffffff1673ffffffffffffffffffffffffffffffffffffffff163373ffffffffffffffffffffffffffffffffffffffff161415156103aa57600080fd5b3460018190555042600581905550603c80601883020202600554016006819055506001600760006101000a81548160ff02191690831515021790555050565b600760009054906101000a900460ff1681565b60065481565b600360009054906101000a900473ffffffffffffffffffffffffffffffffffffffff1681565b60055481565b600060065442111561044b576104426105bb565b60019050610450565b600090505b90565b60046020528060005260406000206000915090505481565b6000809054906101000a900473ffffffffffffffffffffffffffffffffffffffff1681565b60025481565b60015481565b600080600760009054906101000a900460ff1615156104ba57600080fd5b6006544211156104d1576104cc6105bb565b600080fd5b33915034905080600460008473ffffffffffffffffffffffffffffffffffffffff1673ffffffffffffffffffffffffffffffffffffffff1681526020019081526020016000208190555060025481111561056e5781600360006101000a81548173ffffffffffffffffffffffffffffffffffffffff021916908373ffffffffffffffffffffffffffffffffffffffff160217905550806002819055505b5050565b6000600460008373ffffffffffffffffffffffffffffffffffffffff1673ffffffffffffffffffffffffffffffffffffffff168152602001908152602001600020549050919050565b6000600760006101000a81548160ff021916908315150217905550600360009054906101000a900473ffffffffffffffffffffffffffffffffffffffff1673ffffffffffffffffffffffffffffffffffffffff166108fc6001549081150290604051600060405180830381858888f19350505050158015610640573d6000803e3d6000fd5b505600a165627a7a7230582048c0a8862ae673fb74f8725b111ec928999ffff2c416bf9c331041fc0c2ebe640029",
  "source": "pragma solidity 0.4.24;\n\ncontract EtherBid {\n  address public contractOwner; // owner of the contract\n  uint256 public prize; // amount of gwei on offer to winner\n  uint256 public highestBid; // highest bid in wei\n  address public currentHighestBidder; // address of current highest bidder\n  mapping(address => uint256) public addressToHighestBid; // track current highest bids sent by addresses\n  uint256 public startTime; // start time recorded when `startAuction` function is called\n  uint256 public endTime; // end time calculated by duration in days passed to `startAuction` call\n  bool public isActive; // bool toggle here to make sure we don't get stuck in an endless auction ending scenario - it must run only once!\n\n  constructor() {\n    contractOwner = msg.sender;\n  }\n\n  modifier auctionIsActive() {\n    require(isActive);\n\n    if (now > endTime) {\n      endAuction();\n      revert();\n    }\n    _;\n  }\n\n  modifier onlyOwner() {\n    require(msg.sender == contractOwner);\n    _;\n  }\n\n  function getHighestBidForAddress(address queryAddress) external constant returns (uint256) {\n    return addressToHighestBid[queryAddress];\n  }\n\n  function placeBid() external payable auctionIsActive() {\n    address bidder = msg.sender;\n    uint256 bid = msg.value;\n\n    addressToHighestBid[bidder] = bid;\n\n    if (bid > highestBid) {\n      currentHighestBidder = bidder;\n      highestBid = bid;\n    }\n  }\n\n  function checkIfAuctionHasEnded() external returns (bool) {\n    if (now > endTime) {\n      endAuction();\n      return true;\n    }\n\n    return false;\n  }\n\n  function startAuction(uint256 durationInDays) external payable onlyOwner() {\n    prize = msg.value;\n    startTime = now;\n    endTime = startTime + (durationInDays * 24 * 60 * 60);\n    isActive = true;\n  }\n\n  function endAuction() private {\n    isActive = false;\n    currentHighestBidder.transfer(prize);\n  }\n}\n",
  "sourcePath": "/Users/Aaron/Projects/etherbid/contracts/EtherBid.sol",
  "compiler": {
    "name": "solc",
    "version": "0.4.24+commit.e67f0147.Emscripten.clang"
  },
  "schemaVersion": "2.0.1",
  "updatedAt": "2018-08-03T15:04:55.208Z"
}