{
  "contractName": "EtherBid",
  "abi": [
    {
      "constant": true,
      "inputs": [],
      "name": "isActive",
      "outputs": [
        {
          "name": "",
          "type": "bool"
        }
      ],
      "payable": false,
      "stateMutability": "view",
      "type": "function"
    },
    {
      "constant": true,
      "inputs": [],
      "name": "endTime",
      "outputs": [
        {
          "name": "",
          "type": "uint256"
        }
      ],
      "payable": false,
      "stateMutability": "view",
      "type": "function"
    },
    {
      "constant": true,
      "inputs": [],
      "name": "currentHighestBidder",
      "outputs": [
        {
          "name": "",
          "type": "address"
        }
      ],
      "payable": false,
      "stateMutability": "view",
      "type": "function"
    },
    {
      "constant": true,
      "inputs": [],
      "name": "startTime",
      "outputs": [
        {
          "name": "",
          "type": "uint256"
        }
      ],
      "payable": false,
      "stateMutability": "view",
      "type": "function"
    },
    {
      "constant": true,
      "inputs": [
        {
          "name": "",
          "type": "address"
        }
      ],
      "name": "addressToHighestBid",
      "outputs": [
        {
          "name": "",
          "type": "uint256"
        }
      ],
      "payable": false,
      "stateMutability": "view",
      "type": "function"
    },
    {
      "constant": true,
      "inputs": [],
      "name": "contractOwner",
      "outputs": [
        {
          "name": "",
          "type": "address"
        }
      ],
      "payable": false,
      "stateMutability": "view",
      "type": "function"
    },
    {
      "constant": true,
      "inputs": [],
      "name": "highestBid",
      "outputs": [
        {
          "name": "",
          "type": "uint256"
        }
      ],
      "payable": false,
      "stateMutability": "view",
      "type": "function"
    },
    {
      "constant": true,
      "inputs": [],
      "name": "prize",
      "outputs": [
        {
          "name": "",
          "type": "uint256"
        }
      ],
      "payable": false,
      "stateMutability": "view",
      "type": "function"
    },
    {
      "inputs": [],
      "payable": false,
      "stateMutability": "nonpayable",
      "type": "constructor"
    },
    {
      "constant": true,
      "inputs": [
        {
          "name": "queryAddress",
          "type": "address"
        }
      ],
      "name": "getHighestBidForAddress",
      "outputs": [
        {
          "name": "",
          "type": "uint256"
        }
      ],
      "payable": false,
      "stateMutability": "view",
      "type": "function"
    },
    {
      "constant": false,
      "inputs": [],
      "name": "placeBid",
      "outputs": [],
      "payable": true,
      "stateMutability": "payable",
      "type": "function"
    },
    {
      "constant": false,
      "inputs": [
        {
          "name": "durationInDays",
          "type": "uint256"
        }
      ],
      "name": "startAuction",
      "outputs": [],
      "payable": true,
      "stateMutability": "payable",
      "type": "function"
    }
  ],
  "bytecode": "0x608060405234801561001057600080fd5b50336000806101000a81548173ffffffffffffffffffffffffffffffffffffffff021916908373ffffffffffffffffffffffffffffffffffffffff160217905550610610806100606000396000f3006080604052600436106100af576000357c0100000000000000000000000000000000000000000000000000000000900463ffffffff168063065de74c146100b457806322f3e2d4146100d45780633197cbb6146101035780636e395bae1461012e57806378e9792514610185578063b95be5ed146101b0578063ce606ee014610207578063d57bde791461025e578063e3ac5d2614610289578063ecfc7ecc146102b4578063f2e86954146102be575b600080fd5b6100d260048036038101908080359060200190929190505050610315565b005b3480156100e057600080fd5b506100e96103af565b604051808215151515815260200191505060405180910390f35b34801561010f57600080fd5b506101186103c2565b6040518082815260200191505060405180910390f35b34801561013a57600080fd5b506101436103c8565b604051808273ffffffffffffffffffffffffffffffffffffffff1673ffffffffffffffffffffffffffffffffffffffff16815260200191505060405180910390f35b34801561019157600080fd5b5061019a6103ee565b6040518082815260200191505060405180910390f35b3480156101bc57600080fd5b506101f1600480360381019080803573ffffffffffffffffffffffffffffffffffffffff1690602001909291905050506103f4565b6040518082815260200191505060405180910390f35b34801561021357600080fd5b5061021c61040c565b604051808273ffffffffffffffffffffffffffffffffffffffff1673ffffffffffffffffffffffffffffffffffffffff16815260200191505060405180910390f35b34801561026a57600080fd5b50610273610431565b6040518082815260200191505060405180910390f35b34801561029557600080fd5b5061029e610437565b6040518082815260200191505060405180910390f35b6102bc61043d565b005b3480156102ca57600080fd5b506102ff600480360381019080803573ffffffffffffffffffffffffffffffffffffffff169060200190929190505050610513565b6040518082815260200191505060405180910390f35b6000809054906101000a900473ffffffffffffffffffffffffffffffffffffffff1673ffffffffffffffffffffffffffffffffffffffff163373ffffffffffffffffffffffffffffffffffffffff1614151561037057600080fd5b3460018190555042600581905550603c80601883020202600554016006819055506001600760006101000a81548160ff02191690831515021790555050565b600760009054906101000a900460ff1681565b60065481565b600360009054906101000a900473ffffffffffffffffffffffffffffffffffffffff1681565b60055481565b60046020528060005260406000206000915090505481565b6000809054906101000a900473ffffffffffffffffffffffffffffffffffffffff1681565b60025481565b60015481565b600080600760009054906101000a900460ff16151561045b57600080fd5b6006544211156104725761046d61055c565b600080fd5b33915034905080600460008473ffffffffffffffffffffffffffffffffffffffff1673ffffffffffffffffffffffffffffffffffffffff1681526020019081526020016000208190555060025481111561050f5781600360006101000a81548173ffffffffffffffffffffffffffffffffffffffff021916908373ffffffffffffffffffffffffffffffffffffffff160217905550806002819055505b5050565b6000600460008373ffffffffffffffffffffffffffffffffffffffff1673ffffffffffffffffffffffffffffffffffffffff168152602001908152602001600020549050919050565b6000600760006101000a81548160ff021916908315150217905550600360009054906101000a900473ffffffffffffffffffffffffffffffffffffffff1673ffffffffffffffffffffffffffffffffffffffff166108fc6001549081150290604051600060405180830381858888f193505050501580156105e1573d6000803e3d6000fd5b505600a165627a7a72305820006981c6c991641bda6ccb3b97424b903ce2d92a4756f424e0ed3fc06d74a1320029",
  "source": "pragma solidity 0.4.24;\n\ncontract EtherBid {\n  address public contractOwner; // owner of the contract\n  uint256 public prize; // amount of gwei on offer to winner\n  uint256 public highestBid; // highest bid in wei\n  address public currentHighestBidder; // address of current highest bidder\n  mapping(address => uint256) public addressToHighestBid; // track current highest bids sent by addresses\n  uint256 public startTime; // start time recorded when `startAuction` function is called\n  uint256 public endTime; // end time calculated by duration in days passed to `startAuction` call\n  bool public isActive; // bool toggle here to make sure we don't get stuck in an endless auction ending scenario - it must run only once!\n\n  constructor() {\n    contractOwner = msg.sender;\n  }\n\n  modifier auctionIsActive() {\n    require(isActive);\n\n    if (now > endTime) {\n      endAuction();\n      revert();\n    }\n    _;\n  }\n\n  modifier onlyOwner() {\n    require(msg.sender == contractOwner);\n    _;\n  }\n\n  function getHighestBidForAddress(address queryAddress) external constant returns (uint256) {\n    return addressToHighestBid[queryAddress];\n  }\n\n  function placeBid() external payable auctionIsActive() {\n    address bidder = msg.sender;\n    uint256 bid = msg.value;\n\n    addressToHighestBid[bidder] = bid;\n\n    if (bid > highestBid) {\n      currentHighestBidder = bidder;\n      highestBid = bid;\n    }\n  }\n\n  function startAuction(uint256 durationInDays) external payable onlyOwner() {\n    prize = msg.value;\n    startTime = now;\n    endTime = startTime + (durationInDays * 24 * 60 * 60);\n    isActive = true;\n  }\n\n  function endAuction() private {\n    isActive = false;\n    currentHighestBidder.transfer(prize);\n  }\n}\n",
  "sourcePath": "/Users/Aaron/Projects/etherbid/contracts/EtherBid.sol",
  "compiler": {
    "name": "solc",
    "version": "0.4.24+commit.e67f0147.Emscripten.clang"
  },
  "schemaVersion": "2.0.1",
  "updatedAt": "2018-08-03T14:36:03.941Z"
}